{
  "_format": "hh-sol-artifact-1",
  "contractName": "DiceGame",
  "sourceName": "contracts/DiceGame.sol",
  "abi": [
    {
      "inputs": [],
      "stateMutability": "nonpayable",
      "type": "constructor"
    },
    {
      "anonymous": false,
      "inputs": [
        {
          "indexed": true,
          "internalType": "address",
          "name": "player",
          "type": "address"
        },
        {
          "indexed": false,
          "internalType": "uint256",
          "name": "betAmount",
          "type": "uint256"
        },
        {
          "indexed": false,
          "internalType": "uint256",
          "name": "chosenNumber",
          "type": "uint256"
        }
      ],
      "name": "BetPlaced",
      "type": "event"
    },
    {
      "anonymous": false,
      "inputs": [
        {
          "indexed": true,
          "internalType": "address",
          "name": "player",
          "type": "address"
        },
        {
          "indexed": false,
          "internalType": "uint256",
          "name": "rolledNumber",
          "type": "uint256"
        },
        {
          "indexed": false,
          "internalType": "uint256",
          "name": "payout",
          "type": "uint256"
        }
      ],
      "name": "BetResult",
      "type": "event"
    },
    {
      "inputs": [],
      "name": "depositFunds",
      "outputs": [],
      "stateMutability": "payable",
      "type": "function"
    },
    {
      "inputs": [],
      "name": "owner",
      "outputs": [
        {
          "internalType": "address",
          "name": "",
          "type": "address"
        }
      ],
      "stateMutability": "view",
      "type": "function"
    },
    {
      "inputs": [
        {
          "internalType": "uint256",
          "name": "chosenNumber",
          "type": "uint256"
        }
      ],
      "name": "rollDice",
      "outputs": [],
      "stateMutability": "payable",
      "type": "function"
    },
    {
      "inputs": [
        {
          "internalType": "uint256",
          "name": "amount",
          "type": "uint256"
        }
      ],
      "name": "withdrawFunds",
      "outputs": [],
      "stateMutability": "nonpayable",
      "type": "function"
    }
  ],
  "bytecode": "0x6080604052348015600f57600080fd5b50336000806101000a81548173ffffffffffffffffffffffffffffffffffffffff021916908373ffffffffffffffffffffffffffffffffffffffff160217905550610ba48061005f6000396000f3fe60806040526004361061003f5760003560e01c8063155dd5ee146100445780638da5cb5b1461006d578063acfff37714610098578063e2c41dbc146100b4575b600080fd5b34801561005057600080fd5b5061006b60048036038101906100669190610570565b6100be565b005b34801561007957600080fd5b506100826101f9565b60405161008f91906105de565b60405180910390f35b6100b260048036038101906100ad9190610570565b61021d565b005b6100bc6104a5565b005b60008054906101000a900473ffffffffffffffffffffffffffffffffffffffff1673ffffffffffffffffffffffffffffffffffffffff163373ffffffffffffffffffffffffffffffffffffffff161461014c576040517f08c379a00000000000000000000000000000000000000000000000000000000081526004016101439061067c565b60405180910390fd5b4781111561018f576040517f08c379a0000000000000000000000000000000000000000000000000000000008152600401610186906106e8565b60405180910390fd5b60008054906101000a900473ffffffffffffffffffffffffffffffffffffffff1673ffffffffffffffffffffffffffffffffffffffff166108fc829081150290604051600060405180830381858888f193505050501580156101f5573d6000803e3d6000fd5b5050565b60008054906101000a900473ffffffffffffffffffffffffffffffffffffffff1681565b60003411610260576040517f08c379a00000000000000000000000000000000000000000000000000000000081526004016102579061077a565b60405180910390fd5b60018110158015610272575060068111155b6102b1576040517f08c379a00000000000000000000000000000000000000000000000000000000081526004016102a89061080c565b60405180910390fd5b60006001600642336001436102c6919061085b565b406040516020016102d993929190610923565b6040516020818303038152906040528051906020012060001c6102fc919061098f565b61030691906109c0565b90503373ffffffffffffffffffffffffffffffffffffffff167e1ecf1d0c4d22f324b3ecb9cdf0e5f772bc74ac104e6626f4b3845433d03105348460405161034f929190610a03565b60405180910390a281810361044f57600060053461036d9190610a2c565b9050804710156103b2576040517f08c379a00000000000000000000000000000000000000000000000000000000081526004016103a990610ae0565b60405180910390fd5b3373ffffffffffffffffffffffffffffffffffffffff166108fc829081150290604051600060405180830381858888f193505050501580156103f8573d6000803e3d6000fd5b503373ffffffffffffffffffffffffffffffffffffffff167fe8fc86e03b932909eec6895f008b4556e2a30e37971c5aefa052755f98c9b3998383604051610441929190610a03565b60405180910390a2506104a1565b3373ffffffffffffffffffffffffffffffffffffffff167fe8fc86e03b932909eec6895f008b4556e2a30e37971c5aefa052755f98c9b399826000604051610498929190610b45565b60405180910390a25b5050565b60008054906101000a900473ffffffffffffffffffffffffffffffffffffffff1673ffffffffffffffffffffffffffffffffffffffff163373ffffffffffffffffffffffffffffffffffffffff1614610533576040517f08c379a000000000000000000000000000000000000000000000000000000000815260040161052a9061067c565b60405180910390fd5b565b600080fd5b6000819050919050565b61054d8161053a565b811461055857600080fd5b50565b60008135905061056a81610544565b92915050565b60006020828403121561058657610585610535565b5b60006105948482850161055b565b91505092915050565b600073ffffffffffffffffffffffffffffffffffffffff82169050919050565b60006105c88261059d565b9050919050565b6105d8816105bd565b82525050565b60006020820190506105f360008301846105cf565b92915050565b600082825260208201905092915050565b7f5365756c206c652070726f707269c3a974616972652070657574206578c3a96360008201527f7574657220636574746520616374696f6e000000000000000000000000000000602082015250565b60006106666031836105f9565b91506106718261060a565b604082019050919050565b6000602082019050818103600083015261069581610659565b9050919050565b7f4d6f6e74616e742074726f7020c3a96c6576c3a9000000000000000000000000600082015250565b60006106d26014836105f9565b91506106dd8261069c565b602082019050919050565b60006020820190508181036000830152610701816106c5565b9050919050565b7f4c61206d69736520646f697420c3aa74726520737570c3a972696575726520c360008201527fa020300000000000000000000000000000000000000000000000000000000000602082015250565b60006107646023836105f9565b915061076f82610708565b604082019050919050565b6000602082019050818103600083015261079381610757565b9050919050565b7f4c65206e756dc3a9726f2063686f69736920646f697420c3aa74726520656e7460008201527f7265203120657420360000000000000000000000000000000000000000000000602082015250565b60006107f66029836105f9565b91506108018261079a565b604082019050919050565b60006020820190508181036000830152610825816107e9565b9050919050565b7f4e487b7100000000000000000000000000000000000000000000000000000000600052601160045260246000fd5b60006108668261053a565b91506108718361053a565b92508282039050818111156108895761088861082c565b5b92915050565b6000819050919050565b6108aa6108a58261053a565b61088f565b82525050565b60008160601b9050919050565b60006108c8826108b0565b9050919050565b60006108da826108bd565b9050919050565b6108f26108ed826105bd565b6108cf565b82525050565b6000819050919050565b6000819050919050565b61091d610918826108f8565b610902565b82525050565b600061092f8286610899565b60208201915061093f82856108e1565b60148201915061094f828461090c565b602082019150819050949350505050565b7f4e487b7100000000000000000000000000000000000000000000000000000000600052601260045260246000fd5b600061099a8261053a565b91506109a58361053a565b9250826109b5576109b4610960565b5b828206905092915050565b60006109cb8261053a565b91506109d68361053a565b92508282019050808211156109ee576109ed61082c565b5b92915050565b6109fd8161053a565b82525050565b6000604082019050610a1860008301856109f4565b610a2560208301846109f4565b9392505050565b6000610a378261053a565b9150610a428361053a565b9250828202610a508161053a565b91508282048414831517610a6757610a6661082c565b5b5092915050565b7f50617320617373657a20646520666f6e64732064616e73206c6520636f6e747260008201527f6174000000000000000000000000000000000000000000000000000000000000602082015250565b6000610aca6022836105f9565b9150610ad582610a6e565b604082019050919050565b60006020820190508181036000830152610af981610abd565b9050919050565b6000819050919050565b6000819050919050565b6000610b2f610b2a610b2584610b00565b610b0a565b61053a565b9050919050565b610b3f81610b14565b82525050565b6000604082019050610b5a60008301856109f4565b610b676020830184610b36565b939250505056fea264697066735822122082561080652eb8c4b7ac1e2ed1315899b5b837a2233c52ea9ecec6caf3228f5464736f6c634300081c0033",
  "linkReferences": {},
  "deployedLinkReferences": {}
}